:020000040000FA
:10000000880700200D0500001505000017050000F9
:10001000190500001B0500001D0500000000000080
:100020000000000000000000000000001F050000AC
:10003000210500000000000023050000E11D000074
:100040002705000027050000270500002705000000
:1000500027050000270500002705000027050000F0
:1000600027050000270500002705000027050000E0
:1000700027050000270500002705000027050000D0
:1000800027050000270500002705000027050000C0
:1000900027050000270500002705000027050000B0
:1000A00027050000270500002705000027050000A0
:1000B0002705000027050000270500002705000090
:1000C0002705000027050000270500002705000080
:1000D0002705000027050000270500002705000070
:1000E0002705000027050000270500002705000060
:1000F0002705000027050000270500002D2100002E
:10010000270500002705000027050000270500003F
:10011000270500002705000027050000270500002F
:10012000270500002705000027050000270500001F
:10013000270500002705000027050000270500000F
:10040000FFFFFFFFFFFFFFFFFFFFFFFFFEFFFFFFFD
:1004100000F002F800F06AF80AA090E8000C8244AC
:100420008344AAF10107DA4501D100F05FF8AFF289
:10043000090EBAE80F0013F0010F18BFFB1A43F0C2
:1004400001031847E8220000082300000A444FF087
:10045000000C10F8013B13F0070408BF10F8014B23
:100460001D1108BF10F8015B641E05D010F8016B68
:10047000641E01F8016BF9D113F0080F1EBF10F8CC
:10048000014BAD1C0C1B09D16D1E58BF01F801CBEF
:10049000FAD505E014F8016B01F8016B6D1EF9D572
:1004A0009142D6D370470000002300240025002687
:1004B000103A28BF78C1FBD8520728BF30C148BFC7
:1004C0000B607047662902F03580642900F0E881EE
:1004D000002070471FB500F0A9FC04000020002197
:1004E00001F07CFFE0601FBD10B510BD00F09EFD67
:1004F0001146FFF7EFFF01F093FE00F0BCFD03B4DF
:10050000FFF7F2FF03BC00F0FFFD00000948804741
:1005100009480047FEE7FEE7FEE7FEE7FEE7FEE7E5
:10052000FEE7FEE7FEE7FEE704480549034A054B00
:1005300070470000C51E0000110400008803002061
:1005400088070020880300202DE9F00100235FEADE
:10055000910C16D0BCF1004F3FD20124BCF1010F29
:100560000FDB00BF50F8045B03FA85F303EB25456E
:1005700050F8043B05FA83F5641C05EB2343A445BE
:10058000F0DA11F0030C22D0BCF1004F35D2ACF1FF
:100590000105002D15DD841E1CF0010F02D134F978
:1005A000026F3344B4F9027000266D1008D000BF0A
:1005B00034F9048F3B44B4F9027046446D1EF7D100
:1005C0003344BCF1010C5CBF30F91C00034493FBC5
:1005D000F1F01080BDE8F001704750F8044B03FAC9
:1005E00084F303EB244450F8043B04FA83F404EB53
:1005F0002343BCF1010CF0D1C3E730F9024BBCF14D
:10060000010C2344F9D1E2E710B49308C0EA004C8E
:100610000DD0B3F1004F27D20124012B07DB00BF1F
:1006200041F804CB641C41F804CBA342F8DA12F081
:10063000030204BF10BC7047B2F1004F1BD2002A66
:10064000DCBF10BC7047891E12F0010F18BF21F8E3
:10065000020F520804BF10BC7047488021F8040FF5
:10066000521EFAD110BC704741F804CB5B1E41F812
:1006700004CBF9D1DBE721F8020B521EFBD110BCF1
:1006800070472DE9F05F90460D460446970836D036
:100690003846B7F1004F7ED2002F30DDA1460E461E
:1006A0008246B9F9000001F0E7FE6FF00E0101F09B
:1006B00075FF3060B9F9020001F0DEFE6FF00E0147
:1006C00001F06CFF7060B9F9040001F0D5FE6FF025
:1006D0000E0101F063FFB060B9F9060001F0CCFE35
:1006E0006FF00E0101F05AFFF060103609F10809B1
:1006F000BAF1010AD5D104EBC70405EB071518F0D0
:10070000030608BFBDE8F09FB6F1004F70D2A6F116
:100710000109B9F1000F2DDDA71EA5F1040816F09F
:10072000010F09D137F9020F01F0A6FE6FF00E019B
:1007300001F034FF48F8040FB7F902A05FEA690935
:1007400018D037F904BF504601F096FE6FF00E0145
:1007500001F024FFC8F80400B7F902A0584601F0E0
:100760008BFE6FF00E0101F019FF48F8080FB9F188
:100770000109E6D1761E48BFBDE8F09F34F91600A6
:1007800001F07AFE6FF00E0101F008FF45F8260037
:10079000BDE8F09FFFE7B4F9000001F06DFE6FF0D7
:1007A0000E0101F0FBFE45F8040B34F9020F01F0D5
:1007B00063FE6FF00E0101F0F1FE45F8040B34F911
:1007C000020F01F059FE6FF00E0101F0E7FE45F84F
:1007D000040B34F9020F01F04FFE6FF00E0101F02F
:1007E000DDFEA41C45F8040B7F1ED4D187E7FFE78C
:1007F000B4F9000001F040FE6FF00E0101F0CEFEF2
:10080000A41C45F8040B761EF2D1BDE8F09F000051
:100810000FB41CB5074B06AA7B44694600900598A7
:1008200000F0EBFA0020694600F0FAFA1CBC5DF813
:1008300014FB0000050600002DE9F0410E460446B9
:10084000002020622046E168884730B3252805D083
:10085000D4E901219047206A401CF2E7E168204674
:1008600000278847050018D0A5F14100192802D8B3
:1008700020354FF400673246294620462760FFF7AF
:1008800021FE40B1012804D0F61D26F007060836E7
:10089000D8E7361DD6E72846DAE7206ABDE8F081BA
:1008A0002DE9F0410646002410687529314616A549
:1008B00010D0AFF30080002802DA404213A507E011
:1008C00031688A0701D512A502E0490704D511A5B0
:1008D000012401E0AFF3008000210A2206F1240781
:1008E00009E0B0FBF2FCB0FBF2F302FB1C0030307D
:1008F00078541846491C0028F3D123462A4630462E
:10090000BDE8F04100F00BB8000000002D00000031
:100910002B000000200000007047704770472DE951
:10092000F0470D4699469246044600F124080168B6
:10093000880604D5E06921F01001216000E0012063
:10094000A84201DD471B00E00027A1697A1902EBEC
:100950000900081AA0612078C00602D42046AFF32F
:100960000080002608E0D4E901211AF8060090472B
:10097000206A401C761C20624E45F4DB2078C006BD
:100980000AD52046AFF3008006E0D4E901213020EB
:100990009047206A401C2062381EA7F10107F4DC52
:1009A00007E0D4E9012118F805009047206A401CAF
:1009B0002062281EA5F10105F3DC2046AFF300807C
:1009C0002078000602D50220BDE8F0870120FBE771
:1009D00070472DE9FF4F0C461E464FF0FF378BB096
:1009E000D2E90001DDF860800A908A46C1F30A5519
:1009F00005B93D46002108464FF00000BAF1000F4E
:100A000000F4400005DA00EB80004FF4400101EAF9
:100A100050004FEA9059B9F1010F00DDB9460A982C
:100A200050EA4A000ED044F61050A5F2FF35454377
:100A30002F14B8F1000F1ED07542291E1EDDC9F11A
:100A400000021CE0B8F1010F4FF0000001D030218E
:100A500003E0F24305E02154401CB042FBDB30468A
:100A60000022002121540B99C1F80880C1E900201F
:100A70000FB0BDE8F08FBD1B6D1CDEE74A4600DA03
:100A8000694206A800F05CFA06AB93E8070003ABE6
:100A900083E8070050460A9900F03DFB8DE8070007
:100AA000A0F500501F3800900398002D0ADD42F297
:100AB0001F014A460844002303A90390684600F03A
:100AC000A6FD09E0A0F500504A461F38002303A9FF
:100AD0000390684600F0B0FD8DE807000004000CAC
:100AE00003D04FF0FF30410800E01046B8F1000F8E
:100AF00003D00022009215461EE0751E05D400F0BA
:100B000099F9303262556D1EF9D5B346012208437A
:100B100002D000227F1C04E02078302801D100227E
:100B20007F1E002A099784D01DE0112D07DA00F0FE
:100B300081F9303262556D1C50EA0102F5D108434B
:100B400002D00098C8B10EE00021681E05E0235CC9
:100B5000625C63542254401E491C8142F7DBAB4661
:100B6000A81B401E0990002004F80B000B98099A5E
:100B7000C0F80880C0E9002B7AE711264FF0000882
:100B800057E72DE9F04F88460446D21D22F00701B1
:100B900091B0D1E90001CDE90A0101F01FFB024645
:100BA0000B98C00F01D02D2007E02068810701D5E8
:100BB0002B2002E0202101EAC000032A099001D085
:100BC000072A05DB03464146204600F079F90BE190
:100BD0002078800601D5E06900E00620B8F1650FB5
:100BE000814606D0B8F1660F18D0B8F1670F70D102
:100BF00031E00020B9F1110F009001DB112301E079
:100C000009F101030AAA01A90CA8FFF7E2FEDDE938
:100C10000C70002609F10105834647E001204B4690
:100C200000904FF000470AAA01A90CA8FFF7D1FED7
:100C3000DDE90DB00C995D46002610B909F10100FF
:100C40000D18B9EB050003D4C0F1FF3609F1010519
:100C5000A5EB09002BE0B9F1010F01DA4FF0010912
:100C60000020B9F1110F0090484601DD112300E08A
:100C700003460AAA01A90CA8FFF7ABFEDDE90C7038
:100C80004D4600268346207800070AD4AB4500DA9B
:100C90005D4601A8012D04DD411911F8011C302920
:100CA00007D04F4502DA17F1040F04DA012082461B
:100CB0000FE06D1EEEE7002F02DCED1B3E4403E06B
:100CC000781CA84200DD7D1CB81B00F1010A4FF022
:100CD00000472078000703D4AA4501DB4FF0FF3A14
:100CE0000021B7F1004F0DF143088DF8431024D0D7
:100CF00002202B23002F01DA7F422D230A21021E1E
:100D0000A0F1010000DC5FB197FBF1FC97FBF1F271
:100D100001FB1C7C17460CF1300C08F801CDEEE706
:100D2000A8F1010003702188090501D5452100E0E3
:100D30006521A0F1010800F8011C09980FA9A1EB99
:100D40000807FF1D00B10120411901EBEA70A169FC
:100D50003844081A401EA0612078C00602D42046FC
:100D6000AFF30080099828B1D4E901219047206AA7
:100D7000401C20622078C00622D52046AFF30080B8
:100D80001EE0002E04DBB34502DD01A8805D00E01B
:100D90003020D4E901219047206A401C2062761C53
:100DA000AAF101005FEA000A0AD100F03FF8C0682A
:100DB0000168405CD4E901219047206A401C206210
:100DC000281EA5F10105DCDC07E0D4E9012118F8B3
:100DD000010B9047206A401C2062381EA7F10107D2
:100DE000F3DC2046AFF30080032011B041E60000A1
:100DF00001694A1C02610878704700B58FB0CDE9DF
:100E000001310021059105497944CDE903101146CE
:100E10006846FFF711FD0FB000BD0000E5FFFFFFC2
:100E20000A6802F8010B0A6070470000004870472A
:100E30004403002030B5B0F10A024FEA900E71F180
:100E400000034EEA817EB0EB0E0061EB91014FEAA8
:100E5000101E4EEA017E10EB0E0041EB11114FEA1D
:100E6000102E4EEA016E10EB0E0041EB11214FEAFD
:100E7000104E4EEA014E10EB0E0041EB11414018AE
:100E800041F100014FEAD00040EA41704FEAD10140
:100E900010EB80054FEA810444EA907444EB0104AE
:100EA0006D1944EB0404521BA3414FF0000348BFEB
:100EB0000A3200D530BD401C41F1000130BD0000B8
:100EC0002DE9F0411F46044603260168072A01F474
:100ED000006004DB08B116A505E016A503E008B123
:100EE00015A500E015A521F010002060A069C01E26
:100EF000A0610FB1401EA0612046AFF300804FB14A
:100F0000D4E9012138469047206A401C2062C01C69
:100F1000206206E0206AFAE7D4E9012115F8010B06
:100F20009047761EF8D22046AFF30080BDE8F081EE
:100F30004E414E006E616E00494E4600696E66007D
:100F40002DE9F047814616468AB0354878440DC8E9
:100F50008DE80D0032487844801C03AC0DC884E84D
:100F60000D0041F69B300844372190FBF1F290FBD5
:100F7000F1F5A5F1800501FB12041B3C02D564428A
:100F8000012000E00020DFF898A080460027FA4406
:100F9000AAF1BE0A0EE0E0070AD03246684607EB27
:100FA000470101230AEB810100F046FB8DE80700B1
:100FB00064107F1C002CEED1194F7F44AE3F19E026
:100FC000E80715D007EB04100DF1180A90E80E00A1
:100FD0008AE80E00C068F04201D1981908903246A4
:100FE000012306A903A800F027FB03AB83E8070051
:100FF0006D10641C002DE3D14FF0010332466946A9
:10100000B8F1000F03A802D000F001FB01E000F0EE
:1010100013FBC9E90001C9F808200AB0BDE8F08750
:10102000C417000000487047240300207546FFF7EE
:10103000F9FFAE4605006946534620F00700854695
:1010400018B020B5FFF770FABDE820404FF0000659
:101050004FF000074FF000084FF0000B21F00701A0
:10106000AC46ACE8C009ACE8C009ACE8C009ACE8E3
:10107000C0098D46704710B50446AFF30080204686
:10108000BDE81040FFF73BBA4FF0013C50F8042B8D
:1010900051F8043B9A4221D1A2EB0C03934313EA8B
:1010A000CC1317D150F8042B51F8043B9A4215D1B8
:1010B000A2EB0C03934313EACC130BD150F8042B8F
:1010C00051F8043B9A4209D1A2EB0C03934313EA73
:1010D000CC13DBD04FF00000704700BFD01A01BA2C
:1010E000B1FA81F101F0180122FA01F0CB40C1F10F
:1010F0002001DBB2C0B2C01A2CFA01F3D11A91431D
:1011000011EAC311E6D1704701491820ABBEFEE7D2
:101110002600020070475FEA400C08BF91F0000F04
:101120004FEA8C234FEAC12243EA51514FEA1C5047
:1011300018BF00F5F0404FEA300018BF41F0004101
:101140005FEA6C5C00F02980BCF1FF3F08BF40F013
:1011500080407047130C06BF12044FF0100C4FF084
:10116000000C130E04BF12020CF1080C130F04BF85
:1011700012010CF1040C930F04BF92000CF1020C4D
:10118000D30F04BF52000CF1010C11464FF00002C6
:10119000A0F11F00A0EB0C00704711F0004F08BF3A
:1011A000704731F000413FF4D5AF0B0C06BF090486
:1011B0004FF0100C4FF0000C0B0E04BF09020CF1A5
:1011C000080C0B0F04BF09010CF1040C8B0F04BFBA
:1011D00089000CF1020CCB0F04BF49000CF1010C8B
:1011E000CCF12003A0EB0C0022FA03F302FA0CF27C
:1011F00041EA030100F10100704720F07F4C80EAD2
:10120000030023F07F47ACEB070303F57C5300F0AA
:10121000004003F1FF032DE980494FEA154B09B463
:101220004FEA144325EA0B4E24EA03480FF2042642
:1012300006EB132749083E785FEA320203FB066794
:10124000C7F5000707FB06F64FEA54374FEAD646C4
:1012500006F1020607FB066CCCF1005C4FEA1C4766
:101260002CEA074C07FB06F40CFB06F504EB1546CD
:101270004FEA961634BF00204FF000404FEAD137B6
:1012800006FB07FC4FEA1C4C0CFB0BF7D21B03FBC5
:101290000CF761EB07010CFB0EF7B0EB074072EBAC
:1012A00017420CFB08F734BFA2EB0742B2EB074230
:1012B00061EB17414FEA0C444FEA910706FB07FC2C
:1012C0004FEA1C4C0CFB0BF7B0EBC74072EB5732EC
:1012D00003FB0CF734BFA2EBC742B2EBC74261EB92
:1012E00057310CFB0EF7B0EBC70072EB57720CFBDB
:1012F00008F734BFA2EBC702B2EBC70261EB57712C
:10130000039F4FEA816141EA921104EBCC044FEA5A
:10131000D1374FEA826206FB07FC42EA90124FEA9D
:1013200080604FEA1C4C0CFB0BF7D21B03FB0CF745
:1013300061EB07010CFB0EF7B0EB074072EB1742B5
:101340000CFB08F734BFA2EB0742B2EB074261EB9C
:1013500017414FEA8C554FEA910704EB9C2406FB9A
:1013600007FC4FEA1C4C0CFB0BF7B0EBC74072EBD1
:10137000573203FB0CF734BFA2EBC742B2EBC742B4
:1013800061EB57310CFB0EF7B0EBC70072EB5772F5
:101390000CFB08F734BFA2EBC702B2EBC70261EB4C
:1013A000577115EB4C254FEA816141EA92114FEAE2
:1013B00082624FEAD13742EA901206FB07FC44F101
:1013C00000044FEA80604FEA1C4C0CFB0BF7D21B69
:1013D00003FB0CF761EB07010CFB0EF7B0EB0740CA
:1013E00072EB17420CFB08F734BFA2EB0742B2EBDB
:1013F000074261EB174115EB1C154FEA813141EAB9
:1014000092414FEA823242EA90424FEA80304FEAFC
:101410000C7644F1000448EA03434EEA0B484FF0CF
:10142000000EB2EB080C71EB030724BF624639468D
:101430004EEB0E0E4FF0000B0018524149414BEBA2
:101440000B0BB2EB080C71EB03077BF1000B24BF15
:10145000624639464EEB0E0E4FF0000B001852411B
:1014600049414BEB0B0BB2EB080C71EB03077BF123
:10147000000B24BF624639464EEB0E0E51EA0207BE
:1014800018BF46F0010616EB0E7655F1000254F136
:10149000000103D5BDE88901BDE80088BDE88901E8
:1014A000BDE80048B619524141EB0101A3F1010327
:1014B000704780807F7E7D7C7B7A797877767675C1
:1014C0007473727171706F6E6E6D6C6C6B6A6A6939
:1014D0006868676666656464636362616160605FD3
:1014E0005F5E5E5D5D5C5C5B5B5A5A59595858574C
:1014F00057565655555554545353525252515150B4
:1015000050504F4F4F4E4E4D4D4D4C4C4C4B4B4B06
:101510004A4A4A494949484848474747474646464C
:101520004545454444444443434343424242424187
:101530004141002B9C4630D477002BD01CB54FEA9C
:10154000370703B44FF010004FF01001BAF1000F4D
:1015500006D0BCF1000FDCBF40F0080040F00801ED
:101560004FF000000FBCBDE810400BF1010BBBF1C8
:10157000010F08BF5FEA170722BF12F1010211F144
:1015800001014FF0004143F1000300F0004043EA45
:1015900000007047F9D35708D0E746EA064613F132
:1015A000400F4FEA16461FDD13F1200FDFBF164331
:1015B0000A46002120335B42BED0C3F1200746EA31
:1015C000064602FA07F74FEA164646EA0706C3F14F
:1015D000200722FA03F201FA07F721FA03F14FF08C
:1015E000000342EA0702A7E746EA020646EA064681
:1015F0004FEA164646EA0106BCBF46EA0646360CE6
:101600004FF000034FF000024FF0000194E72DE986
:10161000804C9A46934670B491E8380007C831EA86
:10162000400C48BF34EA430C03D5FFF7E6FDFFF753
:1016300080FFF0BCBDE8008C2DE9804C9A469346B3
:1016400070B491E8380007C810F0804F08BF13F05D
:10165000804F03D100F005F8FFF76BFFF0BCBDE849
:10166000008C20F07F4780EA030023F07F4C07EBDB
:101670000C03A3F57C5300F00040A3F1FE0392F0AD
:10168000000F00F0B38095F0000F00F077802DE997
:1016900001494FEA11404FEA144621EA004800FB95
:1016A00006FC24EA064708FB06F607FB08F800FBE1
:1016B00007F718EB06484CEB164C4FEA124B18EBA9
:1016C00007484FEA15464CEB174022EA0B4E0BFB3E
:1016D00006FC25EA06470EFB06F607FB0EFE0BFB93
:1016E00007F71EEB064E4CEB164C4FF000061EEBB8
:1016F000074E4CEB174B18EB0B0840F1000018EBB2
:101700000E0B58EB000840F100008F1A4FF000015B
:101710003CBFC943661B14BFB5EB040C00213CBFA2
:10172000C943F61B4FEA17444EEA8E0E27EA0445DA
:101730004FEA1C4704FB07622CEA074C05FB07F73E
:101740000CFB05F604FB0CFC16EB074642EB1742BC
:1017500016EB0C4642EB1C421BEB060658EB020252
:10176000414146EA9E0601D5BDE80189B6195241BC
:1017700041EB0101A3F10103BDE801894FEA1445E2
:101780004FEA114724EA054621EA074C05FB07F416
:1017900006FB07F70CFB06F105FB0CFC11EB074100
:1017A00044EB17444FEA124711EB0C4144EB1C4445
:1017B00022EA074C05FB07F206FB07F70CFB06F6CF
:1017C00005FB0CFC16EB074642EB174216EB0C46EA
:1017D00042EB1C456A1854F1000148BF7047B61926
:1017E000524141EB0101A3F10103704795F0000F55
:1017F00037D04FEA11424FEA144721EA024624EA61
:10180000074C02FB07F106FB07F70CFB06F402FB93
:101810000CFC14EB074441EB17414FEA154714EB5E
:101820000C4441EB1C4125EA074C02FB07F506FB83
:1018300007F70CFB06F602FB0CFC16EB074645EB24
:10184000174516EB0C4645EB1C42121951F10001ED
:1018500048BF7047B619524141EB0101A3F10103A2
:1018600070474FEA14454FEA114724EA054621EA3A
:10187000074C05FB07F106FB07F70CFB06F24FF0E0
:10188000000605FB0CFC12EB074241EB174112EB83
:101890000C4251EB1C4148BF7047921841EB0101CB
:1018A000A3F10103704700000A48C06B40F00060DC
:1018B0000849C8631420084988601220C8600020C5
:1018C00008620E20486200208861C8610420886296
:1018D000704700000080044000B003400146084803
:1018E000425C02F01F00074B186000BF054800680B
:1018F00000F080000028F9D00248006980B27047EB
:101900004E26000000B0034070B504460D46022D7F
:101910003AD1207830B101280AD002280ED003280D
:1019200031D125E002202070607800F021F92AE012
:1019300002202070607800F01BF924E004F10C0212
:101940003221101DFEF700FEB4F90C00B4F90E10A0
:10195000884207DA2078022804D12070607800F0ED
:10196000A7F804E003202070607800F001F90AE095
:101970000320207003216068B0FBF1F0A060607864
:1019800000F0F6F800BF2FE0207830B1012818D021
:1019900002281CD0032826D11FE0D4E90101884287
:1019A00007D9207828B900202070607800F0B0F8BE
:1019B00006E00120207000206060607800F0D8F818
:1019C00011E001202070607800F0D2F80BE00020D8
:1019D0002070607800F0CCF805E00020207060787E
:1019E00000F0C6F800BF00BF70BD30B504460D461C
:1019F000022D2DD1207830B101280AD002280ED036
:101A0000032824D11DE002202070607800F0B0F897
:101A10001DE002202070607800F0AAF817E0D4E9F9
:101A20000101884207D22078022804D12070607812
:101A300000F03EF804E003202070607800F098F891
:101A400005E003202070607800F092F800BF2DE0E0
:101A5000207830B1012816D002281AD0032824D1CA
:101A60001DE0606838B1207828B9002020706078C7
:101A700000F04EF806E001202070002060606078E1
:101A800000F076F811E001202070607800F070F826
:101A90000BE000202070607800F06AF805E000207C
:101AA0002070607800F064F800BF00BF30BD000017
:101AB000002828DD062826DC411E4900124A52F87B
:101AC00021104968421E5200104B53F82220114346
:101AD000421E52000C4B53F822205160411E490017
:101AE000491C1A4652F821108968421E5200521CA5
:101AF000064B53F822201143421E5200521C024B47
:101B000053F8222091607047D00200206826000020
:101B1000002828DD062826DC411E4900124A52F81A
:101B200021108968421E5200104B53F822201143A5
:101B3000421E52000C4B53F822209160411E490076
:101B4000491C1A4652F821104968421E5200521C84
:101B5000064B53F822201143421E5200521C024BE6
:101B600053F8222051607047D00200206826000000
:101B7000002828DD062826DC411E4900124A52F8BA
:101B800021108968421E5200104B53F82220114345
:101B9000421E52000C4B53F822209160411E490016
:101BA000491C1A4652F821108968421E5200521CE4
:101BB000064B53F822201143421E5200521C024B86
:101BC00053F8222091607047D00200206826000060
:101BD000017831B1012908D0022909D003290ED199
:101BE0000AE04168491E416009E00021416006E0C9
:101BF0004168491C416002E04168416000BF00BF8C
:101C00007047000010B5044604EB4400194A12F86E
:101C100010101948FFF778FE04EB4400154A02EB58
:101C2000400041781548FFF76FFE04EB4400114A6D
:101C300002EB400081781248FFF766FE04EB440097
:101C40000C4A02EB4000C1780E48FFF75DFE04EB42
:101C50004400084A02EB400001790B48FFF754FEAC
:101C600004EB4400034A02EB400041790748FFF7C8
:101C7000BCFE10BD182600004C020020D801002038
:101C800064010020F00000207C00002008000020FB
:101C90000C48806B40F400600A49886388150A4943
:101CA00048610A48006820F0200008498039C1F8DE
:101CB00080000846D0F8940040F02000C1F894005D
:101CC000704700000080044000B0044080F00F40E6
:101CD0000448006840F0200002498839C1F88800B3
:101CE0007047000088F00F400448006840F0200072
:101CF00002498439C1F884007047000084F00F4025
:101D00003248806B40F40070304988630846806B2D
:101D100040F4006088630846806B40F4805088631C
:101D20002B48806840F48070294988600846006923
:101D300040F4807008610846C06840F48070C86054
:101D40002448C06840F480702249C8600846006991
:101D500040F4807008610846806840F480708860B4
:101D60000846C06940F48070C8611B48406B40F46D
:101D70008070194948630846006B40F4807008631E
:101D80001448006840F48070124908600846806971
:101D900040F4807088610E48406840F480700C49BF
:101DA00048600E48406940F440500C4948610B4877
:101DB0009430006840F01E00C1F894000846D0F846
:101DC000D40040F0DD00C1F8D4007047008004402A
:101DD00000B0044000C004400090044000F00F40F8
:101DE00010B50220FFF77AFD01B22F4800683222B9
:101DF000B0FBF2F302FB13022C4820F81210032070
:101E0000FFF76CFD01B2284800683222B0FBF2F304
:101E100002FB1302264820F812100420FFF75EFD93
:101E200001B2214800683222B0FBF2F302FB130238
:101E3000204820F812100520FFF750FD01B21A4883
:101E400000683222B0FBF2F302FB13021A4820F8BA
:101E500012100620FFF742FD01B21348006832223B
:101E6000B0FBF2F302FB1302144820F812100F48E3
:101E70001038FFF7ADFE0E481038FFF7A9FE0D48E9
:101E80001038FFF7A5FE0C481038FFF7A1FE0B48ED
:101E90001038FFF79DFE0A48FFF79AFE02480068D7
:101EA000401C0149086010BDC40200205C020020F3
:101EB000E801002074010020000100208C000020B7
:101EC000080000204CF220505349C8814DF62810DC
:101ED000C8814FF4E9700880504851494864084669
:101EE000806B40F4007088634E48807800F00800F2
:101EF00028B14C48807840F008004A4988704FF07B
:101F00008970474948640846406840F4803048601A
:101F10004548006840F44020434908604348806CCD
:101F200043490840414988640846C06C404908401C
:101F30003E49C86424203F49487080203E490870CB
:101F40003C48007B00F0FE003A490873A22008706C
:101F50000846C07800F01F00C870072008710C20E8
:101F6000487100BF3348807900F002000028F9D0A2
:101F700000BF3048807900F010000028F9D100BF80
:101F80002C48807900F00C000828F9D14C20294910
:101F9000487100BF2748807900F00C000828F9D16B
:101FA00000BF2448807900F040000028F9D02220AA
:101FB0002049087000BF1F48807900F00C000C28F1
:101FC000F9D11A48006920F0807040F4E0601749A8
:101FD00008611A48407900F0E00018494871084645
:101FE000007900F0F80008710E48007800F0DC007D
:101FF00040F050000B4908700846407800F0DC00C3
:1020000040F0400048700846807800F0E600887094
:1020100000200B4908707047002005400000330184
:102020000080044000D0074000700440009004404D
:10203000FFF8FFFE004006400050064000F0074059
:1020400000E0074010B51348806B40F480601149F0
:1020500088630846406B40F48060486340F2133068
:102060000D4908644FF4517048640C48C07800F082
:10207000F3000A49C8700020087027204870022029
:102080008872042088702C20C8702D2000F0BAF8C7
:1020900010BD00000080044000A0044000A00640E5
:1020A00000B5024603E0107800F006F8521C1078E4
:1020B0000028F8D100BD000000BF0449097901F0F3
:1020C00080010029F9D00149C871704700A006407D
:1020D00010B51348806B40F40050114988630846DE
:1020E000406B40F40060486340F213300D49486093
:1020F0004FF4517008600C48C07800F0F3000A49B2
:10210000C8700020087027204870022088720420C0
:1021100088702C20C8702F2000F074F810BD0000CB
:102120000080044000D0044000B0064010B52748AD
:1021300000792648C4790A2C01D00D2C03D1012046
:102140002349087040E0612C06D0642C08D06E2C26
:102150000AD0702C36D11EE001201E49087032E0F2
:1021600000201C4908702EE01A48007890B91A48DF
:102170000078052805DA18480078401C16490870D0
:1021800002E0002014490870134909783031C8B2C0
:10219000FFF792FF17E00F48007890B90E480078DB
:1021A000002805DD0C480078401E0B49087002E04D
:1021B000052009490870084909783031C8B2FFF78D
:1021C0007BFF00E000BF00BF10BD000000B0064074
:1021D0000200002003000020C0020020490050EA55
:1021E000C12018BF04204A0D18BF40F0010040F282
:1021F000FF72B2EB515F08BF40F00200012808BF38
:1022000005207047002809DB00F01F0201219140E2
:102210004209920002F1E022C2F80011704700006A
:1022200008B5FFF735FDFFF73FFBFFF70BFFFFF7A3
:102230004FFFFFF765FD504800684FF47A72B0FB1E
:10224000F2F1481EB0F1807F00D31BE0481E4FF032
:10225000E022506150170F22002804DB13071C0EE8
:10226000464B1C5406E013071D0E454B00F00F04AF
:10227000241F1D5500BF00204FF0E0229061072071
:10228000106100BF32223F490020FEF7BDF9322223
:102290003D490020FEF7B8F932223C490020FEF704
:1022A000B3F932223A490020FEF7AEF93222394919
:1022B0000020FEF7A9F95DE037480078002854D0E7
:1022C000FFF712FD3548007806281CD2DFE800F041
:1022D00003070B0F13170020FFF794FC19E00120F0
:1022E000FFF790FC15E00220FFF78CFC11E00320C3
:1022F000FFF788FC0DE00420FFF784FC09E00520CF
:10230000FFF780FC05E00620FFF77CFCFFF7ECFC04
:1023100000BF00BF012222491D48001FFEF7B1F98E
:102320001F48006800F076F804461E48B0F90C001B
:1023300022460B461CA100901F48FEF769FA1E4872
:10234000FFF7AEFE17481DA142681B48FEF760FA72
:102350001948FFF7A5FE13481CA182681648FEF72E
:1023600057FA1548FFF79CFE04E0FFF7B1FC062082
:10237000FFF748FCA0E700000003002000E400E0B5
:1023800018ED00E05C020020E8010020740100204C
:10239000000100208C00002003000020C00200206B
:1023A000CC020020080000206D65616E3A25662091
:1023B00025640A0D000000000403002074696D65A7
:1023C0005F6D733A2025640A0D00000074696D6525
:1023D0005F723A2025640A0D0000000010B5002944
:1023E0000AD00878002807D005487844FEF74CFE4C
:1023F000002801D0002010BD0248784410BD000024
:10240000620300005A0300000808A0F500114FEA1B
:102410003101704743004FEAD30C4FEA3C0C434074
:102420001FBF40070CF1605113F0FE4F70471CF0C6
:10243000006F03D100200CF0004170470CF0004306
:1024400043EA507010B540EACC0000F02DF800BF10
:10245000000000924FEA0001FFF7D6BF4FF00041A5
:102460004FF00000A1F5002170470000014800F086
:1024700063B800BF0000C07F10F0004148BF404279
:10248000B0FA80F310FA03F2C3F19D030BD051EAC6
:10249000C35101EB1220530638BF704700F1010011
:1024A00008BF20F0010070470EF1020E2EF0030E5F
:1024B0005EF8044B244204D44FEA4102B2F17F4F4C
:1024C00011D84FEA4003B3F17F4F0CD80ED14FEA39
:1024D000D07CB2F17F4F0CEB4C0C0CF1020C08BF1E
:1024E0004CEBD17C04E04FF0080C01E04FEAD17CCA
:1024F0000CEB4C0324FA03F404F00704B4F1040CCD
:1025000006D20EEB840CBDE810404CF0010C604785
:10251000DFE80CF0070802024FF00040A0F5800051
:1025200010BD0846420018BFD2F1807288BF00F08B
:10253000004010BDFEF725BB0CF00F03092B08BFB0
:10254000082000F051800A2B0BD0082B18BF7047D1
:1025500008BF1CF0400F0AD04FF000004FF0000100
:1025600070471CF0400F18BF4FF0004070471CF040
:10257000100F08D020F0704300F07F4242EAD301F0
:102580004FEA4370704700F0604021F07F4242EA1A
:10259000000201F07F4040EA727070474FF0FF0286
:1025A00012EAD0521CBF92F0FF038B42C2BFD1424D
:1025B00000EBC1507047002A0AD0002B0BD0002935
:1025C00000F00040A4BF40F0FE4040F4000070471F
:1025D00000F00040704743024FF00B0C18BF4CF066
:1025E000806C7FF443AF70471CF4801F11D01CF443
:1025F000E02F03D06FEACC31490070474FF04050D4
:10260000EFF3008222F0704242EA000282F3008877
:1026100070474FF0000070470202020202020202FD
:102620000200020200000002020202020202000096
:102630000202020202000202000002020000000088
:102640000000000000020000000202000202050E6D
:1026500008090D0C06070F04001303931A9217C5FF
:1026600085848687C400000004000000100000007C
:102670000800000008000000100000000400000036
:102680008000000000200000001000000100000099
:10269000400000000200000002400000000000A016
:1026A0000000000005400000000000C8000000001D
:1026B0000C4000000000409C000000001940000099
:1026C0000020BCBE0000000034400000BFC91B8ECB
:1026D00000000004B5400000504BCFD06607E2CFA9
:1026E000010000006C4100003E8251AADFEEA734D9
:1026F00001000000D9420000DCB5A0E23A301F978B
:10270000FFFFFFFFB4450000FD25A0C8E9A3C14FAE
:10271000FFFFFFFFFF3F00000000008000000000FF
:10272000FF3F00000000008000000000682700005C
:1027300000000020040300004C040000A427000057
:102740000403002084040000A80400001C00000012
:1027500043000000F8FFFFFF0C0000000E00000027
:102760000F0000002E00000081C301060265410B2E
:10277000710105740A710474C2030A643E74C202D2
:102780000A644974C2010275412D80F00F40049A19
:10279000C008690411590469102920110400A24AD3
:0427A0000400000031
:040000050000050DE5
:00000001FF
