:020000040000FA
:10000000F8080020ED040000F5040000F7040000EB
:10001000F9040000FB040000FD04000000000000E3
:10002000000000000000000000000000FF040000CD
:10003000010500000000000003050000A109000008
:100040000705000007050000070500000705000080
:100050000705000007050000070500000705000070
:100060000705000007050000070500000705000060
:100070000705000007050000070500000705000050
:100080000705000007050000070500000705000040
:100090000705000007050000070500000705000030
:1000A0000705000007050000070500000705000020
:1000B0000705000007050000070500000705000010
:1000C0000705000007050000070500000705000000
:1000D00007050000070500000705000007050000F0
:1000E00007050000070500000705000007050000E0
:1000F00007050000590C0000070500000705000077
:1001000007050000070500000705000007050000BF
:1001100007050000070500000705000007050000AF
:10012000070500000705000007050000070500009F
:10013000070500000705000007050000070500008F
:10014000070500000705000007050000070500007F
:100150000108000007050000070500000705000072
:10016000070500000705000007050000070500005F
:10017000070500000705000007050000070500004F
:10018000070500000705000007050000070500003F
:10019000070500000705000007050000070500002F
:1001A00007050000AD080000070500000705000076
:1001B000070500000705000007050000070500000F
:1001C00007050000070500000705000007050000FF
:1001D00007050000070500000705000007050000EF
:1001E00007050000070500000705000007050000DF
:10040000FFFFFFFFFFFFFFFFFFFFFFFFFEFFFFFFFD
:1004100000F002F800F05AF80AA090E8000C8244BC
:100420008344AAF10107DA4501D100F04FF8AFF299
:10043000090EBAE80F0013F0010F18BFFB1A43F0C2
:1004400001031847000A0000200A00000A444FF088
:10045000000C10F8013B13F0070408BF10F8014B23
:100460001D1108BF10F8015B641E05D010F8016B68
:10047000641E01F8016BF9D113F0080F1EBF10F8CC
:10048000014BAD1C0C1B09D16D1E58BF01F801CBEF
:10049000FAD505E014F8016B01F8016B6D1EF9D572
:1004A0009142D6D370470000002300240025002687
:1004B000103A28BF78C1FBD8520728BF30C148BFC7
:1004C0000B6070471FB51FBD10B510BD00F06CF874
:1004D0001146FFF7F7FF00F03FFC00F08AF803B485
:1004E000FFF7F2FF03BC00F091F8000009488047D5
:1004F00009480047FEE7FEE7FEE7FEE7FEE7FEE706
:10050000FEE7FEE7FEE7FEE704480549034A054B20
:10051000704700007D0A000011040000F80400206C
:10052000F8080020F804002010B49308C0EA004C3A
:100530000DD0B3F1004F27D20124012B07DB00BF00
:1005400041F804CB641C41F804CBA342F8DA12F062
:10055000030204BF10BC7047B2F1004F1BD2002A47
:10056000DCBF10BC7047891E12F0010F18BF21F8C4
:10057000020F520804BF10BC7047488021F8040FD6
:10058000521EFAD110BC704741F804CB5B1E41F8F3
:1005900004CBF9D1DBE721F8020B521EFBD110BCD2
:1005A0007047704770477047754600F02BF8AE46AD
:1005B00005006946534620F00700854618B020B56F
:1005C000FFF7A2FFBDE820404FF000064FF0000704
:1005D0004FF000084FF0000B21F00701AC46ACE8EB
:1005E000C009ACE8C009ACE8C009ACE8C0098D4658
:1005F000704710B50446AFF300802046BDE81040B8
:10060000FFF76DBF0048704798040020014918208B
:10061000ABBEFEE726000200704700000A48C06B30
:1006200040F000600849C86314200849886012201F
:10063000C860002008620E20486200208861C861FE
:1006400004208862704700000080044000B003402E
:1006500001460848425C02F01F00074B186000BFCB
:100660000548006800F080000028F9D002480069C1
:1006700080B270472C0E000000B00340017831B109
:10068000012908D0022909D003290ED10AE04168C6
:10069000491E416009E00021416006E04168491CB3
:1006A000416002E04168416000BF00BF7047000048
:1006B0000C48806B40F400600A49886388150A4939
:1006C00048610A48006820F0200008498039C1F8D4
:1006D00080000846D0F8940040F02000C1F8940053
:1006E000704700000080044000B0044080F00F40DC
:1006F0000448006840F0200002498839C1F88800A9
:100700007047000088F00F400448006840F0200067
:1007100002498439C1F884007047000084F00F401A
:100720003248806B40F40070304988630846806B23
:1007300040F4006088630846806B40F48050886312
:100740002B48806840F48070294988600846006919
:1007500040F4807008610846C06840F48070C8604A
:100760002448C06840F480702249C8600846006987
:1007700040F4807008610846806840F480708860AA
:100780000846C06940F48070C8611B48406B40F463
:100790008070194948630846006B40F48070086314
:1007A0001448006840F48070124908600846806967
:1007B00040F4807088610E48406840F480700C49B5
:1007C00048600E48406940F440500C4948610B486D
:1007D0009430006840F01E00C1F894000846D0F83C
:1007E000D40040F0DD00C1F8D40070470080044020
:1007F00000B0044000C004400090044000F00F40EE
:1008000010B51348006840F0010111480160002054
:10081000FFF71EFFA0F6223001B20E480068322218
:10082000B0FBF2F302FB13020B4820F81210012078
:10083000FFF70EFFA0F6223001B206480068322210
:10084000B0FBF2F302FB1302044820F8121010BDB3
:100850000C710340600400200C000020D800002030
:1008600010B504460D48C06B40F400000B49C86346
:100870000B48006820F00300094908600948006837
:100880004008B0FBF4F00849086003210448C0F8B0
:100890000811442000F052FA10BD0000008004400E
:1008A00000700340680400200071034010B51D482B
:1008B000806900F08070C0B11B480078052805DA17
:1008C00019480078401C1849087002E000201649B9
:1008D0000870154909783031C8B200F0E9F91148BB
:1008E000806940F080700F4988610E48C06900F04F
:1008F0008070B0B10D480078012807DA0B48007805
:10090000401C0A490870FFF7FFFE04E00020074979
:100910000870FFF7EDFE0348C06940F080700149A0
:10092000C86110BD00B004405D0400205C040020DC
:1009300010B51748806B40F400601549886315486E
:10094000806915490843134988610846806920F089
:10095000010088610846C0690F4908430D49C86114
:100960000846C06920F00100C8610C4800680B49C6
:100970009439C1F894000948006808490860C0200B
:100980000449A0310860592000F0D8F910BD0000DA
:100990000080044000B004400201090094F00F40C0
:1009A00010B50220FFF754FE01B22D480068322234
:1009B000B0FBF2F302FB13022A4820F812100320C6
:1009C000FFF746FE01B2264800683222B0FBF2F380
:1009D00002FB1302244820F812100420FFF738FE0F
:1009E00001B21F4800683222B0FBF2F302FB13028F
:1009F0001E4820F812100520FFF72AFE01B2184801
:100A000000683222B0FBF2F302FB1302184820F810
:100A100012100620FFF71CFE01B2114800683222B6
:100A2000B0FBF2F302FB1302124820F812100D483B
:100A30001038FFF723FE0C481038FFF71FFE0B4855
:100A40001038FFF71BFE0A481038FFF717FE0A4858
:100A5000FFF714FE02480068401C0149086010BD01
:100A600060040020F803002084030020100300200D
:100A70009C02002028020020A40100204CF22050FB
:100A80005349C8814DF62810C8814FF4E970088099
:100A90005048514948640846806B40F400708863B0
:100AA0004E48807800F0080028B14C48807840F02B
:100AB00008004A4988704FF08970474948640846E1
:100AC000406840F4803048604548006840F4402069
:100AD000434908604348806C434908404149886461
:100AE0000846C06C404908403E49C86424203F493C
:100AF000487080203E4908703C48007B00F0FE00B2
:100B00003A490873A22008700846C07800F01F0018
:100B1000C870072008710C20487100BF33488079E5
:100B200000F002000028F9D000BF3048807900F0C2
:100B300010000028F9D100BF2C48807900F00C008B
:100B40000828F9D14C202949487100BF27488079ED
:100B500000F00C000828F9D100BF2448807900F08B
:100B600040000028F9D022202049087000BF1F480B
:100B7000807900F00C000C28F9D11A48006920F0A7
:100B8000807040F4E060174908611A48407900F02D
:100B9000E000184948710846007900F0F800087133
:100BA0000E48007800F0DC0040F050000B4908705F
:100BB0000846407800F0DC0040F0400048700846ED
:100BC000807800F0E600887000200B4908707047BC
:100BD00000200540000033010080044000D00740A1
:100BE0000070044000900440FFF8FFFE0040064003
:100BF0000050064000F0074000E0074010B51348E1
:100C0000806B40F48060114988630846406B40F473
:100C10008060486340F213300D4908644FF451700E
:100C200048640C48C07800F0F3000A49C8700020FE
:100C300008702720487002208872042088702C20B9
:100C4000C8702D2000F07AF810BD0000008004402C
:100C500000A0044000A00640114909791049C87954
:100C60000A2801D00D2806D101210E4A1170002159
:100C70000D4A117012E00A4909790949C8710B49F6
:100C8000094A1278885408490978491C064A1170A3
:100C900011460978092901DD09211170704700000A
:100CA00000A0064004000020050000208C04002065
:100CB00000BF0449097901F080010029F9D00149F8
:100CC000C871704700A0064010B51348806B40F40F
:100CD0000050114988630846406B40F480504863D7
:100CE00040F213300D4908604FF4517048600C48D1
:100CF000C07800F0F3000A49C87000200870132083
:100D0000487011208872042088702C20C87031200F
:100D100000F014F810BD00000080044000D0044032
:100D200000C0064000BF0449097901F08001002994
:100D3000F9D00149C871704700C00640002809DB9E
:100D400000F01F02012191404209920002F1E022CD
:100D5000C2F8001170470000FFF7EAFDFFF7A8FC9A
:100D6000FFF75CFCFFF74AFFFFF7AEFFFFF7D8FC89
:100D7000264800684FF47A72B0FBF2F1481EB0F1D9
:100D8000807F00D31BE0481E4FF0E02250615017D7
:100D90000F22002804DB13071C0E1D4B1C5406E019
:100DA00013071D0E1B4B00F00F04241F1D5500BF21
:100DB00000204FF0E02290610720106100BF4FF447
:100DC0007A70FFF74DFDFFF79FFC32221249002099
:100DD000FFF7AAFB322211490020FFF7A5FB3222C0
:100DE0000F490020FFF7A0FB32220E490020FFF739
:100DF0009BFB32220C490020FFF796FB05E06120A7
:100E0000FFF756FF6220FFF78DFFF8E76804002028
:100E100000E400E018ED00E0F80300208403002067
:100E2000100300209C02002028020020050E080963
:100E30000D0C06070F04001303931A9217C585843F
:100E40008687C400640E0000000000206C040000CF
:100E50004C040000940E00006C0400208C04000080
:100E6000A8040000A102CB6402CD3263010652C87F
:100E70000A6450740A7105740A710474AA03740A2E
:100E80006464740A7102E80A700174D10400A24A11
:040E9000040000005A
:04000005000004ED06
:00000001FF
