:020000040000FA
:1000000060070020ED040000F5040000F704000084
:10001000F9040000FB040000FD04000000000000E3
:10002000000000000000000000000000FF040000CD
:10003000010500000000000003050000150C000091
:100040000705000007050000070500000705000080
:100050000705000007050000070500000705000070
:100060000705000007050000070500000705000060
:100070000705000007050000070500000705000050
:100080000705000007050000070500000705000040
:100090000705000007050000070500000705000030
:1000A0000705000007050000070500000705000020
:1000B0000705000007050000070500000705000010
:1000C0000705000007050000070500000705000000
:1000D00007050000070500000705000007050000F0
:1000E00007050000070500000705000007050000E0
:1000F000070500000705000007050000410F00008C
:1001000007050000070500000705000007050000BF
:1001100007050000070500000705000007050000AF
:10012000070500000705000007050000070500009F
:10013000070500000705000007050000070500008F
:10040000FFFFFFFFFFFFFFFFFFFFFFFFFEFFFFFFFD
:1004100000F002F800F05AF80AA090E8000C8244BC
:100420008344AAF10107DA4501D100F04FF8AFF299
:10043000090EBAE80F0013F0010F18BFFB1A43F0C2
:10044000010318476C0D00008C0D00000A444FF0AA
:10045000000C10F8013B13F0070408BF10F8014B23
:100460001D1108BF10F8015B641E05D010F8016B68
:10047000641E01F8016BF9D113F0080F1EBF10F8CC
:10048000014BAD1C0C1B09D16D1E58BF01F801CBEF
:10049000FAD505E014F8016B01F8016B6D1EF9D572
:1004A0009142D6D370470000002300240025002687
:1004B000103A28BF78C1FBD8520728BF30C148BFC7
:1004C0000B6070471FB51FBD10B510BD00F0CCF814
:1004D0001146FFF7F7FF00F099FD00F0EAF803B4CA
:1004E000FFF7F2FF03BC00F0F1F800000948804775
:1004F00009480047FEE7FEE7FEE7FEE7FEE7FEE706
:10050000FEE7FEE7FEE7FEE704480549034A054B20
:1005100070470000F10C000011040000600300208F
:1005200060070020600300202DE9F00100235FEA4E
:10053000910C16D0BCF1004F3FD20124BCF1010F49
:100540000FDB00BF50F8045B03FA85F303EB25458E
:1005500050F8043B05FA83F5641C05EB2343A445DE
:10056000F0DA11F0030C22D0BCF1004F35D2ACF11F
:100570000105002D15DD841E1CF0010F02D134F998
:10058000026F3344B4F9027000266D1008D000BF2A
:1005900034F9048F3B44B4F9027046446D1EF7D120
:1005A0003344BCF1010C5CBF30F91C00034493FBE5
:1005B000F1F01080BDE8F001704750F8044B03FAE9
:1005C00084F303EB244450F8043B04FA83F404EB73
:1005D0002343BCF1010CF0D1C3E730F9024BBCF16D
:1005E000010C2344F9D1E2E710B49308C0EA004CAF
:1005F0000DD0B3F1004F27D20124012B07DB00BF40
:1006000041F804CB641C41F804CBA342F8DA12F0A1
:10061000030204BF10BC7047B2F1004F1BD2002A86
:10062000DCBF10BC7047891E12F0010F18BF21F803
:10063000020F520804BF10BC7047488021F8040F15
:10064000521EFAD110BC704741F804CB5B1E41F832
:1006500004CBF9D1DBE721F8020B521EFBD110BC11
:100660007047704770477047754600F02BF8AE46EC
:1006700005006946534620F00700854618B020B5AE
:10068000FFF742FFBDE820404FF000064FF00007A3
:100690004FF000084FF0000B21F00701AC46ACE82A
:1006A000C009ACE8C009ACE8C009ACE8C0098D4697
:1006B000704710B50446AFF300802046BDE81040F7
:1006C000FFF70DBF004870470003002001491820C4
:1006D000ABBEFEE726000200704700000A48C06B70
:1006E00040F000600849C86314200849886012205F
:1006F000C860002008620E20486200208861C8613E
:1007000004208862704700000080044000B003406D
:1007100001460848425C02F01F00074B186000BF0A
:100720000548006800F080000028F9D00248006900
:1007300080B270476611000000B0034070B50446F7
:100740000D46022D3AD1207830B101280AD0022876
:100750000ED0032831D125E002202070607800F00F
:1007600021F92AE002202070607800F01BF924E0D3
:1007700004F10C023221101DFFF7D6FEB4F90C0073
:10078000B4F90E10884207DA2078022804D12070CC
:10079000607800F0A7F804E003202070607800F093
:1007A00001F90AE00320207014216068B0FBF1F029
:1007B000A060607800F0F6F800BF2FE0207830B13C
:1007C000012818D002281CD0032826D11FE0D4E924
:1007D0000101884207D9207828B90020207060786C
:1007E00000F0B0F806E00120207000206060607822
:1007F00000F0D8F811E001202070607800F0D2F805
:100800000BE000202070607800F0CCF805E00020BC
:100810002070607800F0C6F800BF00BF70BD30B532
:1008200004460D46022D2DD1207830B101280AD082
:1008300002280ED0032824D11DE002202070607809
:1008400000F0B0F81DE002202070607800F0AAF8F7
:1008500017E0D4E90101884207D22078022804D1A8
:100860002070607800F03EF804E00320207060788B
:1008700000F098F805E003202070607800F092F80E
:1008800000BF2DE0207830B1012816D002281AD000
:10089000032824D11DE0606838B1207828B90020F1
:1008A0002070607800F04EF806E0012020700020F3
:1008B0006060607800F076F811E0012020706078C8
:1008C00000F070F80BE000202070607800F06AF80B
:1008D00005E000202070607800F064F800BF00BFE1
:1008E00030BD0000002828DD062826DC411E490016
:1008F000124A52F821104968421E5200104B53F818
:1009000022201143421E52000C4B53F8222051600A
:10091000411E4900491C1A4652F821108968421E9E
:100920005200521C064B53F822201143421E520023
:10093000521C024B53F8222091607047CC020020D9
:1009400080110000002828DD062826DC411E490011
:10095000124A52F821108968421E5200104B53F877
:1009600022201143421E52000C4B53F8222091606A
:10097000411E4900491C1A4652F821104968421E7E
:100980005200521C064B53F822201143421E5200C3
:10099000521C024B53F8222051607047CC020020B9
:1009A00080110000002828DD062826DC411E4900B1
:1009B000124A52F821108968421E5200104B53F817
:1009C00022201143421E52000C4B53F8222091600A
:1009D000411E4900491C1A4652F821108968421EDE
:1009E0005200521C064B53F822201143421E520063
:1009F000521C024B53F8222091607047CC02002019
:100A000080110000017831B1012908D0022909D0F4
:100A100003290ED10AE04168491E416009E0002126
:100A2000416006E04168491C416002E04168416064
:100A300000BF00BF7047000010B5044604EB44003F
:100A4000194A12F810101948FFF778FE04EB440019
:100A5000154A02EB400041781548FFF76FFE04EBA2
:100A60004400114A02EB400081781248FFF766FE0D
:100A700004EB44000C4A02EB4000C1780E48FFF73B
:100A80005DFE04EB4400084A02EB400001790B488C
:100A9000FFF754FE04EB4400034A02EB40004179A7
:100AA0000748FFF7BCFE10BD301100004C020020CB
:100AB000D801002064010020F00000207C0000200C
:100AC000080000200C48806B40F400600A498863ED
:100AD00088150A4948610A48006820F02000084942
:100AE0008039C1F880000846D0F8940040F020001A
:100AF000C1F89400704700000080044000B004403A
:100B000080F00F400448006840F020000249883916
:100B1000C1F888007047000088F00F400448006862
:100B200040F0200002498439C1F884007047000079
:100B300084F00F403248806B40F400703049886385
:100B40000846806B40F4006088630846806B40F480
:100B5000805088632B48806840F480702949886001
:100B60000846006940F4807008610846C06840F497
:100B70008070C8602448C06840F480702249C86012
:100B80000846006940F4807008610846806840F4B7
:100B9000807088600846C06940F48070C8611B4856
:100BA000406B40F48070194948630846006B40F47C
:100BB000807008631448006840F48070124908602F
:100BC0000846806940F4807088610E48406840F4AF
:100BD00080700C4948600E48406940F440500C4910
:100BE00048610B489430006840F01E00C1F8940042
:100BF0000846D0F8D40040F0DD00C1F8D4007047BA
:100C00000080044000B0044000C004400090044054
:100C100000F00F4010B50220FFF77AFD01B22D4819
:100C200000683222B0FBF2F302FB13022A4820F8DC
:100C300012100320FFF76CFD01B226480068322233
:100C4000B0FBF2F302FB1302244820F81210042038
:100C5000FFF75EFD01B21F4800683222B0FBF2F3DD
:100C600002FB13021E4820F812100520FFF750FD6A
:100C700001B2184800683222B0FBF2F302FB130203
:100C8000184820F812100620FFF742FD01B2114863
:100C900000683222B0FBF2F302FB1302124820F884
:100CA00012100D481038FFF7ADFE0C481038FFF752
:100CB000A9FE0B481038FFF7A5FE0A481038FFF7C9
:100CC000A1FE0A48FFF79EFE02480068401C014949
:100CD000086010BDC40200205C020020E801002072
:100CE00074010020000100208C000020080000207A
:100CF0004CF220505349C8814DF62810C8814FF45A
:100D0000E97008805048514948640846806B40F4B7
:100D1000007088634E48807800F0080028B14C4885
:100D2000807840F008004A4988704FF08970474940
:100D300048640846406840F4803048604548006890
:100D400040F44020434908604348806C43490840D0
:100D5000414988640846C06C404908403E49C8641F
:100D600024203F49487080203E4908703C48007B61
:100D700000F0FE003A490873A22008700846C078C7
:100D800000F01F00C870072008710C20487100BFD8
:100D90003348807900F002000028F9D000BF3048C5
:100DA000807900F010000028F9D100BF2C4880792C
:100DB00000F00C000828F9D14C202949487100BFE7
:100DC0002748807900F00C000828F9D100BF24489A
:100DD000807900F040000028F9D0222020490870D6
:100DE00000BF1F48807900F00C000C28F9D11A4888
:100DF000006920F0807040F4E060174908611A48EB
:100E0000407900F0E000184948710846007900F088
:100E1000F80008710E48007800F0DC0040F0500047
:100E20000B4908700846407800F0DC0040F04000B4
:100E300048700846807800F0E600887000200B4972
:100E40000870704700200540000033010080044016
:100E500000D007400070044000900440FFF8FFFEFF
:100E6000004006400050064000F0074000E0074008
:100E700010B51348806B40F48060114988630846C0
:100E8000406B40F48060486340F213300D490864C1
:100E90004FF4517048640C48C07800F0F3000A49E0
:100EA000C870002008702720487002208872042033
:100EB00088702C20C8702D2000F09AF810BD00001A
:100EC0000080044000A0044000A0064000BF044988
:100ED000097901F080010029F9D00149C8717047F2
:100EE00000A0064010B51348806B40F40050114933
:100EF00088630846406B40F40060486340F213305A
:100F00000D4948604FF4517008600C48C07800F0FB
:100F1000F3000A49C870002008702720487002209A
:100F20008872042088702C20C8702F2000F060F890
:100F300010BD00000080044000D0044000B0064016
:100F400010B5274800792648C4790A2C01D00D2C09
:100F500003D101202349087040E0612C06D0642CA5
:100F600008D06E2C0AD0702C36D11EE001201E490C
:100F7000087032E000201C4908702EE01A48007802
:100F800090B91A480078052805DA18480078401CFE
:100F90001649087002E000201449087013490978C6
:100FA0003031C8B2FFF792FF17E00F48007890B9D0
:100FB0000E480078002805DD0C480078401E0B49DB
:100FC000087002E0052009490870084909783031A5
:100FD000C8B2FFF77BFF00E000BF00BF10BD0000FC
:100FE00000B006400200002003000020C0020020E4
:100FF000002809DB00F01F02012191404209920004
:1010000002F1E022C2F8001170470000FFF75AFD1C
:10101000FFF764FBFFF72CFFFFF764FFFFF78AFD84
:10102000394800684FF47A72B0FBF2F1481EB0F113
:10103000807F00D31BE0481E4FF0E0225061501724
:101040000F22002804DB13071C0E304B1C5406E053
:1010500013071D0E2E4B00F00F04241F1D5500BF5B
:1010600000204FF0E02290610720106100BF322283
:1010700028490020FFF7B8FA322227490020FFF75D
:10108000B3FA322225490020FFF7AEFA3222244972
:101090000020FFF7A9FA322222490020FFF7A4FA24
:1010A00031E02148007848B3FFF738FD1F48007849
:1010B00006281CD2DFE800F003070B0F13170020EF
:1010C000FFF7BAFC19E00120FFF7B6FC15E002209B
:1010D000FFF7B2FC11E00320FFF7AEFC0DE00420A7
:1010E000FFF7AAFC09E00520FFF7A6FC05E00620B3
:1010F000FFF7A2FCFFF712FD00BF04E0FFF702FDBF
:101100000620FFF799FCCCE7FC02002000E400E099
:1011100018ED00E05C020020E801002074010020CE
:10112000000100208C00002003000020C0020020ED
:101130000202020202020202020002020000000297
:101140000202020202020000020202020200020285
:101150000000020200000000000000000002000089
:10116000000202000202050E08090D0C06070F041A
:10117000001303931A9217C585848687C400000064
:10118000040000001000000008000000080000003B
:10119000100000000400000080000000002000009B
:1011A00000100000010000004000000002000000EC
:1011B000D011000000000020000300004C040000DB
:1011C0000C1200000003002060040000A8040000CE
:1011D00081C3010602654B0B71010574C2040A64E8
:1011E00048740A710374C2020A645074C201027125
:1011F0004B2D80F00F40049AC0086904115904690E
:0C120000102920110400A24A0400000084
:04000005000004ED06
:00000001FF
