:020000040000FA
:1000000040070020ED040000F5040000F7040000A4
:10001000F9040000FB040000FD04000000000000E3
:10002000000000000000000000000000FF040000CD
:1000300001050000000000000305000001080000A9
:100040000705000007050000070500000705000080
:100050000705000007050000070500000705000070
:100060000705000007050000070500000705000060
:100070000705000007050000070500000705000050
:100080000705000007050000070500000705000040
:100090000705000007050000070500000705000030
:1000A0000705000007050000070500000705000020
:1000B0000705000007050000070500000705000010
:1000C0000705000007050000070500000705000000
:1000D00007050000070500000705000007050000F0
:1000E00007050000070500000705000007050000E0
:1000F0000705000007050000070500002D0B0000A4
:1001000007050000070500000705000007050000BF
:1001100007050000070500000705000007050000AF
:10012000070500000705000007050000070500009F
:10013000070500000705000007050000070500008F
:10040000FFFFFFFFFFFFFFFFFFFFFFFFFEFFFFFFFD
:1004100000F002F800F05AF80AA090E8000C8244BC
:100420008344AAF10107DA4501D100F04FF8AFF299
:10043000090EBAE80F0013F0010F18BFFB1A43F0C2
:1004400001031847B8080000D80800000A444FF01C
:10045000000C10F8013B13F0070408BF10F8014B23
:100460001D1108BF10F8015B641E05D010F8016B68
:10047000641E01F8016BF9D113F0080F1EBF10F8CC
:10048000014BAD1C0C1B09D16D1E58BF01F801CBEF
:10049000FAD505E014F8016B01F8016B6D1EF9D572
:1004A0009142D6D370470000002300240025002687
:1004B000103A28BF78C1FBD8520728BF30C148BFC7
:1004C0000B6070471FB51FBD10B510BD00F06CF874
:1004D0001146FFF7F7FF00F04FFB00F08AF803B476
:1004E000FFF7F2FF03BC00F091F8000009488047D5
:1004F00009480047FEE7FEE7FEE7FEE7FEE7FEE706
:10050000FEE7FEE7FEE7FEE704480549034A054B20
:1005100070470000DD0800001104000040030020C7
:10052000400700204003002010B49308C0EA004CAC
:100530000DD0B3F1004F27D20124012B07DB00BF00
:1005400041F804CB641C41F804CBA342F8DA12F062
:10055000030204BF10BC7047B2F1004F1BD2002A47
:10056000DCBF10BC7047891E12F0010F18BF21F8C4
:10057000020F520804BF10BC7047488021F8040FD6
:10058000521EFAD110BC704741F804CB5B1E41F8F3
:1005900004CBF9D1DBE721F8020B521EFBD110BCD2
:1005A0007047704770477047754600F02BF8AE46AD
:1005B00005006946534620F00700854618B020B56F
:1005C000FFF7A2FFBDE820404FF000064FF0000704
:1005D0004FF000084FF0000B21F00701AC46ACE8EB
:1005E000C009ACE8C009ACE8C009ACE8C0098D4658
:1005F000704710B50446AFF300802046BDE81040B8
:10060000FFF76DBF00487047DC0200200149182049
:10061000ABBEFEE726000200704700000A48C06B30
:1006200040F000600849C86314200849886012201F
:10063000C860002008620E20486200208861C861FE
:1006400004208862704700000080044000B003402E
:1006500001460848425C02F01F00074B186000BFCB
:100660000548006800F080000028F9D002480069C1
:1006700080B27047E40C000000B00340017831B153
:10068000012908D0022909D003290ED10AE04168C6
:10069000491E416009E00021416006E04168491CB3
:1006A000416002E04168416000BF00BF7047000048
:1006B0000C48806B40F400600A49886388150A4939
:1006C00048610A48006820F0200008498039C1F8D4
:1006D00080000846D0F8940040F02000C1F8940053
:1006E000704700000080044000B0044080F00F40DC
:1006F0000448006840F0200002498839C1F88800A9
:100700007047000088F00F400448006840F0200067
:1007100002498439C1F884007047000084F00F401A
:100720003248806B40F40070304988630846806B23
:1007300040F4006088630846806B40F48050886312
:100740002B48806840F48070294988600846006919
:1007500040F4807008610846C06840F48070C8604A
:100760002448C06840F480702249C8600846006987
:1007700040F4807008610846806840F480708860AA
:100780000846C06940F48070C8611B48406B40F463
:100790008070194948630846006B40F48070086314
:1007A0001448006840F48070124908600846806967
:1007B00040F4807088610E48406840F480700C49B5
:1007C00048600E48406940F440500C4948610B486D
:1007D0009430006840F01E00C1F894000846D0F83C
:1007E000D40040F0DD00C1F8D40070470080044020
:1007F00000B0044000C004400090044000F00F40EE
:1008000010B50220FFF724FF01B22D480068322204
:10081000B0FBF2F302FB13022A4820F81210032067
:10082000FFF716FF01B2264800683222B0FBF2F350
:1008300002FB1302244820F812100420FFF708FFDF
:1008400001B21F4800683222B0FBF2F302FB130230
:100850001E4820F812100520FFF7FAFE01B21848D2
:1008600000683222B0FBF2F302FB1302184820F8B2
:1008700012100620FFF7ECFE01B211480068322288
:10088000B0FBF2F302FB1302124820F812100D48DD
:100890001038FFF7F3FE0C481038FFF7EFFE0B4857
:1008A0001038FFF7EBFE0A481038FFF7E7FE0A485A
:1008B000FFF7E4FE02480068401C0149086010BDD3
:1008C000C40200205C020020E80100207401002026
:1008D000000100208C000020080000204CF2205075
:1008E0005349C8814DF62810C8814FF4E97008803B
:1008F0005048514948640846806B40F40070886352
:100900004E48807800F0080028B14C48807840F0CC
:1009100008004A4988704FF0897047494864084682
:10092000406840F4803048604548006840F440200A
:10093000434908604348806C434908404149886402
:100940000846C06C404908403E49C86424203F49DD
:10095000487080203E4908703C48007B00F0FE0053
:100960003A490873A22008700846C07800F01F00BA
:10097000C870072008710C20487100BF3348807987
:1009800000F002000028F9D000BF3048807900F064
:1009900010000028F9D100BF2C48807900F00C002D
:1009A0000828F9D14C202949487100BF274880798F
:1009B00000F00C000828F9D100BF2448807900F02D
:1009C00040000028F9D022202049087000BF1F48AD
:1009D000807900F00C000C28F9D11A48006920F049
:1009E000807040F4E060174908611A48407900F0CF
:1009F000E000184948710846007900F0F8000871D5
:100A00000E48007800F0DC0040F050000B49087000
:100A10000846407800F0DC0040F04000487008468E
:100A2000807800F0E600887000200B49087070475D
:100A300000200540000033010080044000D0074042
:100A40000070044000900440FFF8FFFE00400640A4
:100A50000050064000F0074000E0074010B5134882
:100A6000806B40F48060114988630846406B40F415
:100A70008060486340F213300D4908644FF45170B0
:100A800048640C48C07800F0F3000A49C8700020A0
:100A900008702720487002208872042088702C205B
:100AA000C8702D2000F05AF810BD000000800440EE
:100AB00000A0044000A0064000BF0449097901F0ED
:100AC00080010029F9D00149C871704700A0064093
:100AD00010B51348806B40F40050114988630846F4
:100AE000406B40F40060486340F213300D494860A9
:100AF0004FF4517008600C48C07800F0F3000A49C8
:100B0000C8700020087027204870022088720420D6
:100B100088702C20C8702F2000F020F810BD000035
:100B20000080044000D0044000B0064010B50848E2
:100B300000790748C4790A2C01D00D2C03D101207B
:100B40000449087001E004480470FFF7DDFD10BDA2
:100B500000B0064002000020D0020020002809DB7F
:100B600000F01F02012191404209920002F1E022AF
:100B7000C2F8001170470000FFF79AFDFFF74EFD25
:100B8000FFF76CFFFFF7A4FFFFF7CAFD49480068B5
:100B90004FF47A72B0FBF2F1481EB0F1807F00D3BF
:100BA0001BE0481E4FF0E022506150170F22002832
:100BB00004DB13071C0E404B1C5406E013071D0EEC
:100BC0003E4B00F00F04241F1D5500BF00204FF0C6
:100BD000E02290610720106100BF322238490020D6
:100BE000FFF7A2FC322237490020FFF79DFC32229A
:100BF00035490020FFF798FC322234490020FFF7E6
:100C000093FC322232490020FFF78EFC51E031483C
:100C1000007800284DD0304800786E2813D12F4836
:100C20000078052805DA2D480078401C2B4908700B
:100C300002E0002029490870284909783031C8B2FB
:100C4000FFF73AFF29E024480078702812D12348A2
:100C5000007818B905202149087004E01F48007881
:100C6000401E1E4908701D4909783031C8B2FFF78F
:100C700023FF12E018480078612805D1FFF744FDF2
:100C800001201749087008E013480078642804D14F
:100C9000FFF72EFD00201249087000200D49087052
:100CA0000D20FFF709FF0A20FFF706FF00200A4981
:100CB0000870ACE7CC02002000E400E018ED00E092
:100CC0005C020020E80100207401002000010020E7
:100CD0008C00002002000020D0020020C002002072
:100CE00004000020050E08090D0C06070F04001370
:100CF00003931A9217C585848687C4001C0D0000D3
:100D000000000020D00200004C040000440D000050
:100D1000D002002070040000A804000081630106D6
:100D200052C80265500B710105740A710474AA035C
:100D3000740A6464740A7102E80A700174D10400D0
:040D4000A24A0400BF
:04000005000004ED06
:00000001FF
